:100000000C945E000C9486000C9486000C94860080
:100010000C9486000C9486000C9486000C94860048
:100020000C9486000C9486000C9486000C94860038
:100030000C9486000C9486000C9486000C94860028
:100040000C942B030C9486000C94F9020C94D302AC
:100050000C9486000C9486000C9486000C94860008
:100060000C9486000C9486000000000024002700F9
:100070002A0000000000250028002B0004040404CE
:100080000404040402020202020203030303030342
:10009000010204081020408001020408102001021F
:1000A00004081020000000080002010000030407FB
:1000B00000000000000000007503B80411241FBEFA
:1000C000CFEFD8E0DEBFCDBF21E0A6E3B1E001C0B5
:1000D0001D92A63EB207E1F711E0A0E0B1E0E8E230
:1000E000FEE002C005900D92A633B107D9F710E0EB
:1000F000CDE5D0E004C02197FE010E94F504CC3587
:10010000D107C9F70E94B0030C9407070C940000B4
:100110002FB7F89480913B0190913C01A0913D0153
:10012000B0913E012FBF8093470190934801A09367
:100130004901B0934A01E0913F01F09140010284EE
:10014000F385E02D8FE391E0099597FF26C02FB747
:10015000F89480913B0190913C01A0913D01B091B8
:100160003E012FBF409147015091480160914901E4
:1001700070914A01841B950BA60BB70B409143016C
:100180005091440160914501709146018417950793
:10019000A607B70780F28FEF9FEF0895E1EBF0E03D
:1001A0002491EDE9F0E09491E9E8F0E0E491EE23A8
:1001B00009F43BC0222339F1233091F038F4213087
:1001C000A9F0223001F524B52F7D12C0273091F01F
:1001D0002830A1F02430B9F4209180002F7D03C095
:1001E000209180002F77209380000DC024B52F77B9
:1001F00024BD09C02091B0002F7703C02091B0002A
:100200002F7D2093B000F0E0EE0FFF1FEE58FF4F60
:10021000A591B4912FB7F894EC91811103C09095FA
:100220009E2301C09E2B9C932FBF0895CF92DF92F7
:10023000EF92FF920F931F93CF93DF936C017A019C
:100240008B01C0E0D0E0CE15DF0589F0D8016D91BB
:100250008D01D601ED91FC910190F081E02DC60158
:100260000995892B11F47E0102C02196ECCFC701BC
:10027000DF91CF911F910F91FF90EF90DF90CF9082
:100280000895089580E090E00895FC01538D448D19
:10029000252F30E0842F90E0821B930B541710F031
:1002A000CF96089501970895FC01918D828D98173E
:1002B00061F0828DDF01A80FB11D5D968C91928D4A
:1002C0009F5F9F73928F90E008958FEF9FEF089547
:1002D000FC01918D828D981731F0828DE80FF11D10
:1002E000858D90E008958FEF9FEF0895FC01918D2B
:1002F000228D892F90E0805C9F4F821B91098F7324
:10030000992708958FE391E00E94760121E0892BDF
:1003100009F420E0822F0895FC01848DDF01A80FED
:10032000B11DA35ABF4F2C91848D90E001968F731D
:100330009927848FA689B7892C93A089B1898C913C
:1003400080648C93938D848D981306C00288F38902
:10035000E02D80818F7D80830895EF92FF920F932F
:100360001F93CF93DF93EC0181E0888F9B8D8C8D61
:10037000981305C0E889F989808185FD24C0F62E8F
:100380000B8D10E00F5F1F4F0F731127E02E8C8D28
:10039000E8120CC00FB607FCFACFE889F989808112
:1003A00085FFF5CFCE010E948C01F1CF8B8DFE0130
:1003B000E80FF11DE35AFF4FF0820B8FEA89FB89AA
:1003C0008081806207C0EE89FF896083E889F989AE
:1003D00080818064808381E090E0DF91CF911F91E4
:1003E0000F91FF90EF900895CF93DF93EC01888DEC
:1003F0008823C9F0EA89FB89808185FD05C0A88929
:10040000B9898C9186FD0FC00FB607FCF5CF8081AE
:1004100085FFF2CFA889B9898C9185FFEDCFCE01F8
:100420000E948C01E7CFDF91CF91089580E090E0AA
:10043000892B29F00E94820181110C9400000895FB
:100440003FB7F8948091370190913801A09139011C
:10045000B0913A0126B5A89B05C02F3F19F001962F
:10046000A11DB11D3FBFBA2FA92F982F8827820F3A
:10047000911DA11DB11DBC01CD0142E0660F771F8A
:10048000881F991F4A95D1F708958F929F92AF9236
:10049000BF92CF92DF92EF92FF926B017C010E949C
:1004A00020024B015C01C114D104E104F104F1F01C
:1004B0000E942002DC01CB0188199909AA09BB0915
:1004C000883E9340A105B10570F321E0C21AD1081E
:1004D000E108F10888EE880E83E0981EA11CB11C8B
:1004E000C114D104E104F10419F7DDCFFF90EF90BE
:1004F000DF90CF90BF90AF909F908F9008950E9413
:10050000F2060F931F93CF93DF93EC0188819981BB
:10051000009729F02A813B812617370788F48B0141
:100520006F5F7F4F0E942806009761F09983888350
:100530001B830A832C813D81232B11F4FC01108243
:1005400081E001C080E0DF91CF911F910F9108956C
:10055000EF92FF920F931F93CF93DF93EC017B01F8
:100560008A01BA010E9481022881398181110DC05E
:100570002115310519F0C9010E94900519821882D0
:100580001D821C821B821A8206C01D830C83B70148
:10059000C9010E940007CE01DF91CF911F910F91F9
:1005A000FF90EF9008951F920F920FB60F921124B3
:1005B0002F933F934F935F936F937F938F939F936B
:1005C000AF93BF93EF93FF938FE391E00E948C0171
:1005D000FF91EF91BF91AF919F918F917F916F911B
:1005E0005F914F913F912F910F900FBE0F901F90F1
:1005F00018951F920F920FB60F9211242F938F937D
:100600009F93EF93FF93E0914F01F0915001808110
:10061000E0915501F091560182FD12C090818091C8
:1006200058018F5F8F7320915901821751F0E0912B
:100630005801F0E0E15CFE4F958F8093580101C0B6
:100640008081FF91EF919F918F912F910F900FBE1D
:100650000F901F9018951F920F920FB60F921124B2
:100660002F933F938F939F93AF93BF9380913B01C1
:1006700090913C01A0913D01B0913E013091360135
:1006800023E0230F2D3720F40196A11DB11D05C0D5
:1006900026E8230F0296A11DB11D209336018093F9
:1006A0003B0190933C01A0933D01B0933E018091AA
:1006B000370190913801A0913901B0913A0101962A
:1006C000A11DB11D8093370190933801A09339018A
:1006D000B0933A01BF91AF919F918F913F912F912C
:1006E0000F900FBE0F901F901895EFE3F1E013826B
:1006F000128288EE93E0A0E0B0E084839583A68325
:10070000B7838AE091E09183808385EC90E09587C0
:10071000848784EC90E09787868780EC90E0918BCB
:10072000808B81EC90E0938B828B82EC90E0958BB8
:10073000848B86EC90E0978B868B118E128E138EB5
:10074000148EECEDF1E01182108213821282158278
:10075000148240E050E064E371E0CF010C94A80201
:10076000CF93DF93CDB7DEB728970FB6F894DEBFEF
:100770000FBECDBF789484B5826084BD84B581609E
:1007800084BD85B5826085BD85B5816085BD80915C
:100790006E00816080936E001092810080918100D4
:1007A00082608093810080918100816080938100CC
:1007B000809180008160809380008091B10084608E
:1007C0008093B1008091B00081608093B0008091EF
:1007D0007A00846080937A0080917A0082608093AE
:1007E0007A0080917A00816080937A0080917A000B
:1007F000806880937A001092C100E0914F01F091DF
:10080000500182E08083E0914B01F0914C01108215
:10081000E0914D01F0914E018FEC808310925701D1
:10082000E0915301F091540186E08083E091510101
:10083000F0915201808180618083E0915101F091BB
:100840005201808188608083E0915101F0915201D2
:10085000808180688083E0915101F0915201808114
:100860008F7D8083EDE9F0E02491E9E8F0E0849168
:10087000882399F090E0880F991FFC01E859FF4FF9
:10088000A591B491FC01EE58FF4F859194918FB7DB
:10089000F894EC91E22BEC938FBF81E00E94CE00A4
:1008A0006AE174E080E090E00E94450280E00E94EE
:1008B000CE006AE174E080E090E00E9445021A8276
:1008C00019821C821B821E821D8240E050E064E37C
:1008D00071E0CE0101960E94A8020E9488000D815D
:1008E0001E8197FD19C08F8318860F5F1F4FB801B7
:1008F000CE0101960E948102882379F329813A81F1
:100900008D819E81BE01695F7F4F820F931F0E9480
:1009100000071E830D83E1CF012B19F1E981FA81D4
:1009200080818823F1F060ED77E080E090E00E9424
:10093000450249E150E068E171E08FE391E00E94F7
:1009400016014D815E8169817A818FE391E00E9479
:10095000160142E050E062E371E08FE391E00E9413
:10096000160189819A810E9490050E94160295CFF6
:100970008091DC019091DD010C9490052F923F92C3
:100980004F925F926F927F928F929F92AF92BF929F
:10099000CF92DF92EF92FF920F931F93CF93DF934B
:1009A000CDB7DEB7CA1BDB0B0FB6F894DEBF0FBEA8
:1009B000CDBF09942A88398848885F846E847D84F5
:1009C0008C849B84AA84B984C884DF80EE80FD80F7
:1009D0000C811B81AA81B981CE0FD11D0FB6F8946D
:1009E000DEBF0FBECDBFED010895EE0FFF1F0590D6
:1009F000F491E02D0994CF93DF938230910510F4A8
:100A000082E090E0E091E401F091E50120E030E047
:100A1000C0E0D0E0309711F140815181481759076B
:100A2000C0F04817590761F482819381209719F02B
:100A30009B838A832BC09093E5018093E40126C0B9
:100A40002115310519F04217530718F49A01BE0118
:100A5000DF01EF010280F381E02DDCCF21153105AC
:100A600009F1281B390B2430310590F412968D9131
:100A70009C9113976115710521F0FB01938382838B
:100A800004C09093E5018093E401FD01329644C0D7
:100A9000FD01E20FF31F81939193225031092D93B1
:100AA0003C933AC02091E2013091E301232B41F4C1
:100AB00020910201309103013093E3012093E20180
:100AC00020910001309101012115310541F42DB72C
:100AD0003EB74091040150910501241B350BE09174
:100AE000E201F091E301E217F307A0F42E1B3F0BA4
:100AF0002817390778F0AC014E5F5F4F2417350790
:100B000048F04E0F5F1F5093E3014093E201819341
:100B1000919302C0E0E0F0E0CF01DF91CF91089522
:100B20000F931F93CF93DF93009709F48CC0FC01C0
:100B30003297138212820091E4011091E5010115B0
:100B4000110581F420813181820F931F2091E201F0
:100B50003091E3012817390779F5F093E301E09329
:100B6000E20171C0D80140E050E0AE17BF0750F479
:100B700012962D913C911397AD012115310509F184
:100B8000D901F3CF9D01DA01338322836081718122
:100B9000860F971F8217930769F4EC01288139812A
:100BA000260F371F2E5F3F4F318320838A819B8121
:100BB00093838283452B29F4F093E501E093E401CC
:100BC00042C01396FC93EE931297ED01499159910F
:100BD0009E01240F351FE217F30771F48081918184
:100BE000840F951F029611969C938E938281938118
:100BF00013969C938E931297E0E0F0E0D801129642
:100C00008D919C911397009719F0F8018C01F6CF04
:100C10008D919C9198012E5F3F4F820F931F2091E1
:100C2000E2013091E3012817390769F4309729F47C
:100C30001092E5011092E40102C013821282109317
:100C4000E3010093E201DF91CF911F910F9108958D
:100C5000A0E0B0E0EEE2F6E00C94C204EC010097F4
:100C600021F4CB010E94FB04B8C0FC01E60FF71F82
:100C70009C0122503109E217F30708F4ACC0D901F6
:100C80000D911C91119706171707B0F0053011054B
:100C900008F49FC0C80104978617970708F499C005
:100CA00002501109061B170B019311936D937C934E
:100CB000CF010E9490058DC05B01A01AB10A4C01C2
:100CC000800E911EA091E401B091E50140E050E05A
:100CD000E12CF12C109709F44AC0A815B905D1F5FB
:100CE0006D907C901197630182E0C80ED11CCA14EC
:100CF000DB0480F1A3014A195B096A0182E0C80E96
:100D0000D11C1296BC9012971396AC91B5E0CB16FD
:100D1000D10440F0B282A38351834083D9016D9303
:100D20007C930AC00E5F1F4FC301800F911FF90112
:100D300091838083EB2DFA2FE114F10431F0D70178
:100D40001396FC93EE93129744C0F093E501E09361
:100D5000E4013FC08D919C9111974817590708F401
:100D6000AC017D0112960D90BC91A02DB3CF809166
:100D7000E2019091E30188159905E1F446175707C0
:100D8000C8F48091000190910101009741F48DB762
:100D90009EB74091040150910501841B950BE81703
:100DA000F907C8F4F093E301E093E201F9017183DC
:100DB00060830FC0CB010E94FB047C01009759F0B7
:100DC000A801BE010E94F706CE010E949005C7014E
:100DD00004C0CE0102C080E090E0CDB7DEB7EEE007
:100DE0000C94DE0481E090E0F8940C940707FB017A
:100DF000DC0102C001900D9241505040D8F7089597
:100E0000FB01DC0101900D920020E1F7089510E054
:100E1000CDE5D0E004C0FE010E94F5042196CE3558
:080E2000D107C9F7F894FFCFD8
:100E28000000E601800000000000AD011601450148
:100E3800F401760154016801526573706F6E736531
:100E48002046726F6D2041726475696E6F203D3E59
:060E580020000D0A00005D
:00000001FF
